:1000000000308A0033280000FF00030E8301A100A6
:100010000A08A0008A010408A2007708A300780853
:10002000A4007908A5007A08A600831383128B1E0A
:100030001B280B192C28220884002308F700240809
:10004000F8002508F9002608FA0020088A00210E89
:100050008300FF0E7F0E09008A110A122F280B1150
:100060008A110A121B2803081F39830083161F14E4
:100070009F141F159F1107309C0083130108C0397E
:100080000238810083128B16C0308B040030831637
:10009000860083120611DF308316850083128516D1
:0E00A0000030831686008312861655286300F2
:02400E00723FFF
:00000001FF
;PIC16F877A
;CRC=5163  CREATED="19-jun-24 09:01"
