:1000000002308A00092A0000FF00030E8301A100CC
:100010000A08A0008A010408A2007708A300780853
:10002000A4007908A5007A08A600831383128B1E0A
:100030001B280B192C28220884002308F700240809
:10004000F8002508F9002608FA0020088A00210E89
:100050008300FF0E7F0E09008A110A122F28A80ABA
:100060000319A90A2808323C031D3C28A908031DCE
:100070003C28A901A80127140B118A110A121B2878
:10008000F701F801400803104118F707F70CF80CC6
:10009000C118F707F70CF80C4119F707F70CF80C23
:1000A000C119F707F70CF80C411AF707F70CF80C11
:1000B000C11AF707F70CF80C411BF707F70CF80CFF
:1000C000C11BF707F70CF80C0800AA012A08023C2C
:1000D000031C7F28AB012B08023C031C7D282A0847
:1000E000C0000330C10040202B087807373E840051
:1000F0008313FF308000AB0A6B28AA0A6628B70179
:10010000AF012F08AE0008002E08C0000330C10068
:1001100040202F087807373E84008313FF3080008B
:10012000AF0A2F08023C03189B28AF01AE0A2E0825
:10013000023C031CAE012E08C0000330C100402069
:100140002F087807373E840083130008FF3C031D07
:10015000B7282E08C0000330C10040202F087807C0
:10016000373E840083138001B601C028B828B60A40
:100170003608093C031DBF280330B500C02890286D
:100180008A110A12572A00308316860083128616B7
:10019000831686008312061783168600831286173D
:1001A000DF308316850083128512003083168600A7
:1001B000831206108316860083128610831686002B
:1001C0008312061183168600831286118316860019
:1001D00083120612AC08031DF32800308316860034
:1001E0008312861200292C0BFB2800308316860010
:1001F00083120613002900308316860083128613AB
:10020000AC08031D0929003083168600831286126C
:1002100016292C0B11290030831686008312061331
:100220001629003083168600831286132C08C0001E
:100230000330C10040202D087807373E8400831327
:10024000000B3929AD08031D2B29DF3083168500EB
:100250008312851638292D0B33290030831686002A
:100260008312061438290030831686008312861400
:100270008E292C08C0000330C10040202D087807CB
:10028000373E840083130008023C031D5E29AD083D
:10029000031D5029003083168600831206155D2940
:1002A0002D0B5829003083168600831286155D2990
:1002B000003083168600831206168E292C08C00093
:1002C0000330C10040202D087807373E8400831397
:1002D0008008031D8E29AD08031D7929DF308316A0
:1002E000850083128516003083168600831206155A
:1002F0008E292D0B85290030831686008312061463
:1003000083168600831286158E2900308316860098
:100310008312861483168600831206162C08C000EA
:100320000330C10040202D087807373E8400831336
:10033000000BB129AD08031DA329DF30831685000A
:1003400083128516B0292D0BAB2900308316860049
:1003500083120614B0290030831686008312861497
:10036000062A2C08C0000330C10040202D08780761
:10037000373E840083130008023C031DD629AD08D4
:10038000031DC82900308316860083120615D5295F
:100390002D0BD02900308316860083128615D529AF
:1003A00000308316860083120616062A2C08C00029
:1003B0000330C10040202D087807373E84008313A6
:1003C0008008031D062AAD08031DF129DF308316BE
:1003D0008500831285160030831686008312061569
:1003E000062A2D0BFD290030831686008312061481
:1003F0008316860083128615062A0030831686002F
:100400008312861483168600831206168A110A1236
:100410006C2A03081F3983002710A7102711A71182
:10042000A901A801AA01AB01AC01AD01AE01AF0168
:100430006430B000B100B200B301B401B501B6013F
:10044000831603170908C039890003131F129F126E
:100450000030031788008312870188018901831304
:10046000831603130108C0390238810083128B16EA
:10047000C0308B046520DF30831685008312051998
:10048000482AB00B472AA718472AA71465204B2AE9
:10049000A7106430B000DF30831685008312851802
:1004A000582AB10B572A2719572A271584285B2A5F
:1004B00027116430B100DF308316850083120518E0
:1004C000662AB20B652AA71DA715692AA7116430F1
:1004D000B200271C872AC3280130AD072D08033C32
:1004E000031D792A0130AC07AD012C08033C031928
:1004F000AC01B5080319862A350B802AB30A852A70
:100500003508023C031D852AB40A652027103B2AC2
:02051000630086
:04400E00C22CFF3F82
:00000001FF
;PIC16F887
;CRC=5724  CREATED="26-jun-24 19:44"
