:1000000002308A00B22A0000FF00030E8301A10023
:100010000A08A0008A010408A2007708A300780853
:10002000A4007908A5007A08A600831383128B1E0A
:100030001B280B192C28220884002308F700240809
:10004000F8002508F9002608FA0020088A00210E89
:100050008300FF0E7F0E09008A110A122F28A80ABA
:100060000319A90A2808233C031D3C28A908031DDD
:100070003C28A901A80127140B118A110A121B2878
:10008000F701F801430803104418F707F70CF80CC0
:10009000C418F707F70CF80C4419F707F70CF80C1D
:1000A000C419F707F70CF80C441AF707F70CF80C0B
:1000B000C41AF707F70CF80C441BF707F70CF80CF9
:1000C000C41BF707F70CF80C0800AA012A08023C29
:1000D000031C7F28AB012B08023C031C7D282A0847
:1000E000C3000330C40040202B087807373E84004B
:1000F0008313FF308000AB0A6B28AA0A6628B70179
:10010000AF012F08AE0008002E08C3000330C40062
:1001100040202F087807373E84008313FF3080008B
:100120002712271AB928AF0A2F08023C03189E2865
:10013000AF01AE0A2E08023C031CAE012E08C3001C
:100140000330C40040202F087807373E8400831313
:100150000008FF3C031DB8282E08C3000330C4006C
:1001600040202F087807373E84008313800127162C
:1001700091288A110A12012B0030831686008312FF
:10018000861783168600831206178316860083124D
:100190008616DF30831685008312851200308316A1
:1001A000860083120610831686008312861083163B
:1001B0008600831206118316860083128611831629
:1001C000860083120612AC08031DEC28003083164B
:1001D000860083128613FD282C0BF428003083162A
:1001E000860083120613FD282C08023C031DFD28FF
:1001F000003083168600831286122C08C300033059
:10020000C40040202D087807373E84008313000B7C
:100210002029AD08031D1229DF30831685008312C3
:1002200085161F292D0B1A2900308316860083128C
:1002300006141F2900308316860083128614752940
:100240002C08C3000330C40040202D087807373E37
:10025000840083130008023C031D4529AD08031DDB
:1002600037290030831686008312061544292D0B8A
:100270003F290030831686008312861544290030FA
:10028000831686008312061675292C08C3000330D6
:10029000C40040202D087807373E8400831380086F
:1002A000031D7529AD08031D6029DF308316850005
:1002B0008312851600308316860083120615752971
:1002C0002D0B6C29003083168600831206148316CA
:1002D00086008312861575290030831686008312E6
:1002E000861483168600831206168A110A12082BBA
:1002F000AA012A08023C031C0F2A2A08C300033063
:10030000C4004020780840078400831341188317F5
:100310000008FF3C0319D4292A08C3000330C40095
:100320004020780840078400831341188317000891
:10033000C2002A08C3000330C400402001307807FF
:100340004007840083134118831700084202031DED
:10035000D4292A08C3000330C4004020780840078D
:1003600084008313411883170008C2002A08C300C1
:100370000330C40040200230780740078400831314
:100380004118831700084202031DD4292A08C3001C
:100390000330C400402078084007840083134118CC
:1003A00083170008F800AF2A2A0840078400831347
:1003B000411883170008FF3C03190D2A2A0840073B
:1003C00084008313411883170008C20003302A07F2
:1003D0004007840083134118831700084202031D5D
:1003E0000D2A2A0840078400831341188317000848
:1003F000C20006302A074007840083134118831780
:1004000000084202031D0D2A2A08400784008313B6
:10041000411883170008F800AF2AAA0A7929400872
:1004200084008313411883170008FF3C0319432AF3
:10043000400884008313411883170008C200043069
:100440004007840083134118831700084202031DEC
:10045000432A400884008313411883170008C20010
:1004600008304007840083134118831700084202B4
:10047000031D432A40088400831341188317000892
:10048000F800AF2AAF2A02304007840083134118D6
:1004900083170008FF3C03197B2A023040078400C1
:1004A0008313411883170008C200043040078400FA
:1004B00083134118831700084202031D7B2A023070
:1004C000400784008313411883170008C2000630D8
:1004D0004007840083134118831700084202031D5C
:1004E0007B2A0230400784008313411883170008D9
:1004F000F800AF2AAF2AB601AA012A08023C031C61
:10050000A52AAB012B08023C031CA32A2A08C3001E
:100510000330C40040202B087807373E8400831343
:100520000008FF3C0319A12A2A08C3000330C400B5
:1005300040202B087807373E840083138008031D72
:10054000B60AAB0A822AAA0A7D2A3608093C031D8C
:10055000AD2A0330F800AF2AAF2A0030F8008A1124
:100560000A12192B03081F3983002710A71027111F
:10057000A7112712A901A801AA01AB01AC01AD0185
:10058000AE01AF016430B000B100B200B301B401FC
:10059000B501B601831603170908C0398900031392
:1005A0001F129F12003003178800831287018801F1
:1005B00089018313831603130108C03902388100AF
:1005C00083128B16C0308B046520DF3083168500C4
:1005D00083120519F22AB00BF12AA718F12AA714E1
:1005E0006520F52AA7106430B000DF30831685003F
:1005F00083128518022BB10B012B2719012B27150C
:100600008428052B27116430B100271C292BBC2816
:100610000130AD072D08023C0318152B0130AC0743
:10062000AD012C08023C031CAC01C1013730C000F5
:1006300078297808B500B5080319282B350B222B2B
:10064000B30A272B3508023C031D272BB40A65206B
:060650002710E52A6300FB
:04400E00C22CFF3F82
:00000001FF
;PIC16F887
;CRC=BE6B  CREATED="01-jul-24 16:40"
