:1000000001308A0038290000FF00030E8301A1009F
:100010000A08A0008A010408A2007708A300780853
:10002000A4007908A5007A08A600831383128B1E0A
:100030001B280B192C28220884002308F700240809
:10004000F8002508F9002608FA0020088A00210E89
:100050008300FF0E7F0E09008A110A122F28A80ABA
:100060000319A90A2808323C031D3C28A908031DCE
:100070003C28A901A80127140B118A110A121B2878
:10008000F701F8013D0803103E18F707F70CF80CCC
:10009000BE18F707F70CF80C3E19F707F70CF80C29
:1000A000BE19F707F70CF80C3E1AF707F70CF80C17
:1000B000BE1AF707F70CF80C3E1BF707F70CF80C05
:1000C000BE1BF707F70CF80C0800AA012A08023C2F
:1000D000031C7F28AB012B08023C031C7D282A0847
:1000E000BD000330BE0040202B087807343E84005A
:1000F0008313FF308000AB0A6B28AA0A6628080029
:1001000000308316860083128616831686008312BB
:1001100006178316860083128617DF308316850044
:100120008312851200308316860083120610831610
:1001300086008312861083168600831206118316AA
:100140008600831286118316860083120612AC087D
:10015000031DB02800308316860083128612BD2846
:100160002C0BB82800308316860083120613BD2896
:10017000003083168600831286132C08BD000330DE
:10018000BE0040202D087807343E84008313000B06
:10019000E028AD08031DD228DF30831685008312C6
:1001A0008516DF282D0BDA2800308316860083128F
:1001B0000614DF2800308316860083128614352942
:1001C0002C08BD000330BE0040202D087807343EC7
:1001D000840083130008023C031D0529AD08031D9C
:1001E000F7280030831686008312061504292D0B8C
:1001F000FF280030831686008312861504290030FC
:10020000831686008312061635292C08BD0003309C
:10021000BE0040202D087807343E840083138008F8
:10022000031D3529AD08031D2029DF308316850005
:100230008312851600308316860083120615352931
:100240002D0B2C290030831686008312061483168A
:1002500086008312861535290030831686008312A6
:10026000861483168600831206168A110A129629AE
:1002700003081F3983002710A7102711A711A90110
:10028000A801AA01AB01AC01AD016430AE00AF0022
:10029000B000B101B201B301831603170908C039D8
:1002A000890003131F129F12003003178800831266
:1002B0008701880189018313831603130108C0395C
:1002C0000238810083128B16C0308B046520DF302A
:1002D00083168500831205197429AE0B7329A7189C
:1002E0007329A71465207729A7106430AE00DF308A
:1002F00083168500831285188229AF0B8129271D5B
:100300002715852927116430AF00DF30831685005B
:10031000831205189029B00B8F29A71DA7159329C3
:10032000A7116430B000271CA42980280130AD0734
:100330002D08033C031DA3290130AC07AD012C0897
:0C034000033C0319AC012710672963007F
:04400E00C22CFF3F82
:00000001FF
;PIC16F887
;CRC=7A17  CREATED="26-jun-24 19:23"
