:1000000000308A0073280000FF00030E8301A10066
:100010000A08A0008A010408A2007708A300780853
:10002000A4007908A5007A08A600831383128B1E0A
:100030001B280B192C28220884002308F700240809
:10004000F8002508F9002608FA0020088A00210E89
:100050008300FF0E7F0E09008A110A122F280B1150
:100060008A110A121B28A7012708023C031C7028CA
:10007000A8012808023C031C6E282708B50003309D
:10008000B600F701F801350803103618F707F70C2A
:10009000F80CB618F707F70CF80C3619F707F70C39
:1000A000F80CB619F707F70CF80C361AF707F70C27
:1000B000F80CB61AF707F70CF80C361BF707F70C15
:1000C000F80CB61BF707F70CF80C280878072C3E3D
:1000D00084008313FF308000A80A3928A70A342837
:1000E0008A110A12962803081F398300A701A80164
:1000F000A901AA01AB01831603170908C0398900B9
:1001000003131F129F120030031788008312870108
:10011000880189018313831603130108C03902384B
:10012000810083128B16C0308B043328962863001D
:04400E00C22CFF3F82
:00000001FF
;PIC16F887
;CRC=3FDA  CREATED="26-jun-24 10:33"
