:1000000001308A003B290000FF00030E8301A1009C
:100010000A08A0008A010408A2007708A300780853
:10002000A4007908A5007A08A600831383128B1E0A
:100030001B280B192C28220884002308F700240809
:10004000F8002508F9002608FA0020088A00210E89
:100050008300FF0E7F0E09008A110A122F2801303B
:10006000A8070318A90A2808323C031D3D28A9083F
:10007000031D3D28A901A80127140B118A110A129A
:100080001B28F701F8013A0803103B18F707F70C93
:10009000F80CBB18F707F70CF80C3B19F707F70C2F
:1000A000F80CBB19F707F70CF80C3B1AF707F70C1D
:1000B000F80CBB1AF707F70CF80C3B1BF707F70C0B
:1000C000F80CBB1BF707F70CF80C0800AA012A086C
:1000D000023C031C8028AB012B08023C031C7E2839
:1000E0002A08BA000330BB0041202B087807313EB4
:1000F00084008313FF308000AB0A6C28AA0A6728AB
:100100008A110A126329003083168600831286162C
:1001100083168600831206178316860083128617BD
:10012000DF30831685008312851200308316860027
:1001300083120610831686008312861083168600AB
:100140008312061183168600831286118316860099
:1001500083120612AC08031DB328003083168600F4
:1001600083128612C0282C0BBB2800308316860011
:1001700083120613C028003083168600831286136C
:100180002C08BA000330BB0041202D087807313E0F
:1001900084008313000BE328AD08031DD528DF304E
:1001A0008316850083128516E2282D0BDD2800308A
:1001B0008316860083120614E22800308316860018
:1001C0008312861438292C08BA000330BB00412062
:1001D0002D087807313E840083130008023C031D7C
:1001E0000829AD08031DFA28003083168600831203
:1001F000061507292D0B022900308316860083126D
:1002000086150729003083168600831206163829C2
:100210002C08BA000330BB0041202D087807313E7E
:10022000840083138008031D3829AD08031D23298A
:10023000DF30831685008312851600308316860012
:100240008312061538292D0B2F29003083168600BE
:10025000831206148316860083128615382900300F
:100260008316860083128614831686008312061670
:100270008A110A12752903081F3983002710A90162
:10028000A801AA01AB01AC01AD01AE01AF01B00103
:10029000831603170908C039890003131F129F1220
:1002A00000300317880083128701880189018313B6
:1002B000831603130108C0390238810083128B169C
:1002C000C0308B0466280130B1000230B200B301A7
:1002D0000130B4000230B500B6010130B700023081
:1002E000B800B901271C832983280130AD072D08E8
:1002F000033C031D82290130AC07AD012C08033CEF
:0A0300000319AC01271072296300F5
:04400E00C22CFF3F82
:00000001FF
;PIC16F887
;CRC=056B  CREATED="26-jun-24 11:27"
